{
  "_format": "hh-sol-artifact-1",
  "contractName": "CarbonCredit",
  "sourceName": "contracts/CarbonCredit.sol",
  "abi": [
    {
      "inputs": [],
      "stateMutability": "nonpayable",
      "type": "constructor"
    },
    {
      "anonymous": false,
      "inputs": [
        {
          "indexed": true,
          "internalType": "address",
          "name": "farmer",
          "type": "address"
        },
        {
          "indexed": false,
          "internalType": "uint256",
          "name": "amount",
          "type": "uint256"
        },
        {
          "indexed": false,
          "internalType": "string",
          "name": "source",
          "type": "string"
        }
      ],
      "name": "CreditIssued",
      "type": "event"
    },
    {
      "inputs": [],
      "name": "admin",
      "outputs": [
        {
          "internalType": "address",
          "name": "",
          "type": "address"
        }
      ],
      "stateMutability": "view",
      "type": "function"
    },
    {
      "inputs": [
        {
          "internalType": "address",
          "name": "",
          "type": "address"
        },
        {
          "internalType": "uint256",
          "name": "",
          "type": "uint256"
        }
      ],
      "name": "credits",
      "outputs": [
        {
          "internalType": "uint256",
          "name": "amount",
          "type": "uint256"
        },
        {
          "internalType": "string",
          "name": "source",
          "type": "string"
        },
        {
          "internalType": "uint256",
          "name": "timestamp",
          "type": "uint256"
        }
      ],
      "stateMutability": "view",
      "type": "function"
    },
    {
      "inputs": [
        {
          "internalType": "address",
          "name": "farmer",
          "type": "address"
        }
      ],
      "name": "getCredits",
      "outputs": [
        {
          "components": [
            {
              "internalType": "uint256",
              "name": "amount",
              "type": "uint256"
            },
            {
              "internalType": "string",
              "name": "source",
              "type": "string"
            },
            {
              "internalType": "uint256",
              "name": "timestamp",
              "type": "uint256"
            }
          ],
          "internalType": "struct CarbonCredit.Credit[]",
          "name": "",
          "type": "tuple[]"
        }
      ],
      "stateMutability": "view",
      "type": "function"
    },
    {
      "inputs": [
        {
          "internalType": "address",
          "name": "farmer",
          "type": "address"
        },
        {
          "internalType": "uint256",
          "name": "amount",
          "type": "uint256"
        },
        {
          "internalType": "string",
          "name": "source",
          "type": "string"
        }
      ],
      "name": "issueCredit",
      "outputs": [],
      "stateMutability": "nonpayable",
      "type": "function"
    }
  ],
  "bytecode": "0x608060405234801561001057600080fd5b50336000806101000a81548173ffffffffffffffffffffffffffffffffffffffff021916908373ffffffffffffffffffffffffffffffffffffffff160217905550610db3806100606000396000f3fe608060405234801561001057600080fd5b506004361061004c5760003560e01c80633b66e9f614610051578063aae91ada14610081578063f851a4401461009d578063ff76a861146100bb575b600080fd5b61006b60048036038101906100669190610528565b6100ed565b6040516100789190610710565b60405180910390f35b61009b60048036038101906100969190610893565b610231565b005b6100a56103c3565b6040516100b29190610911565b60405180910390f35b6100d560048036038101906100d0919061092c565b6103e7565b6040516100e4939291906109c5565b60405180910390f35b6060600160008373ffffffffffffffffffffffffffffffffffffffff1673ffffffffffffffffffffffffffffffffffffffff168152602001908152602001600020805480602002602001604051908101604052809291908181526020016000905b8282101561022657838290600052602060002090600302016040518060600160405290816000820154815260200160018201805461018b90610a32565b80601f01602080910402602001604051908101604052809291908181526020018280546101b790610a32565b80156102045780601f106101d957610100808354040283529160200191610204565b820191906000526020600020905b8154815290600101906020018083116101e757829003601f168201915b505050505081526020016002820154815250508152602001906001019061014e565b505050509050919050565b60008054906101000a900473ffffffffffffffffffffffffffffffffffffffff1673ffffffffffffffffffffffffffffffffffffffff163373ffffffffffffffffffffffffffffffffffffffff16146102bf576040517f08c379a00000000000000000000000000000000000000000000000000000000081526004016102b690610aaf565b60405180910390fd5b600160008473ffffffffffffffffffffffffffffffffffffffff1673ffffffffffffffffffffffffffffffffffffffff16815260200190815260200160002060405180606001604052808481526020018381526020014281525090806001815401808255809150506001900390600052602060002090600302016000909190919091506000820151816000015560208201518160010190816103619190610c7b565b506040820151816002015550508273ffffffffffffffffffffffffffffffffffffffff167f3d3cd89c70e28646470c17a650c3e9152de8fad384318364a57b116d5ad13e6583836040516103b6929190610d4d565b60405180910390a2505050565b60008054906101000a900473ffffffffffffffffffffffffffffffffffffffff1681565b6001602052816000526040600020818154811061040357600080fd5b90600052602060002090600302016000915091505080600001549080600101805461042d90610a32565b80601f016020809104026020016040519081016040528092919081815260200182805461045990610a32565b80156104a65780601f1061047b576101008083540402835291602001916104a6565b820191906000526020600020905b81548152906001019060200180831161048957829003601f168201915b5050505050908060020154905083565b6000604051905090565b600080fd5b600080fd5b600073ffffffffffffffffffffffffffffffffffffffff82169050919050565b60006104f5826104ca565b9050919050565b610505816104ea565b811461051057600080fd5b50565b600081359050610522816104fc565b92915050565b60006020828403121561053e5761053d6104c0565b5b600061054c84828501610513565b91505092915050565b600081519050919050565b600082825260208201905092915050565b6000819050602082019050919050565b6000819050919050565b61059481610581565b82525050565b600081519050919050565b600082825260208201905092915050565b60005b838110156105d45780820151818401526020810190506105b9565b60008484015250505050565b6000601f19601f8301169050919050565b60006105fc8261059a565b61060681856105a5565b93506106168185602086016105b6565b61061f816105e0565b840191505092915050565b6000606083016000830151610642600086018261058b565b506020830151848203602086015261065a82826105f1565b915050604083015161066f604086018261058b565b508091505092915050565b6000610686838361062a565b905092915050565b6000602082019050919050565b60006106a682610555565b6106b08185610560565b9350836020820285016106c285610571565b8060005b858110156106fe57848403895281516106df858261067a565b94506106ea8361068e565b925060208a019950506001810190506106c6565b50829750879550505050505092915050565b6000602082019050818103600083015261072a818461069b565b905092915050565b61073b81610581565b811461074657600080fd5b50565b60008135905061075881610732565b92915050565b600080fd5b600080fd5b7f4e487b7100000000000000000000000000000000000000000000000000000000600052604160045260246000fd5b6107a0826105e0565b810181811067ffffffffffffffff821117156107bf576107be610768565b5b80604052505050565b60006107d26104b6565b90506107de8282610797565b919050565b600067ffffffffffffffff8211156107fe576107fd610768565b5b610807826105e0565b9050602081019050919050565b82818337600083830152505050565b6000610836610831846107e3565b6107c8565b90508281526020810184848401111561085257610851610763565b5b61085d848285610814565b509392505050565b600082601f83011261087a5761087961075e565b5b813561088a848260208601610823565b91505092915050565b6000806000606084860312156108ac576108ab6104c0565b5b60006108ba86828701610513565b93505060206108cb86828701610749565b925050604084013567ffffffffffffffff8111156108ec576108eb6104c5565b5b6108f886828701610865565b9150509250925092565b61090b816104ea565b82525050565b60006020820190506109266000830184610902565b92915050565b60008060408385031215610943576109426104c0565b5b600061095185828601610513565b925050602061096285828601610749565b9150509250929050565b61097581610581565b82525050565b600082825260208201905092915050565b60006109978261059a565b6109a1818561097b565b93506109b18185602086016105b6565b6109ba816105e0565b840191505092915050565b60006060820190506109da600083018661096c565b81810360208301526109ec818561098c565b90506109fb604083018461096c565b949350505050565b7f4e487b7100000000000000000000000000000000000000000000000000000000600052602260045260246000fd5b60006002820490506001821680610a4a57607f821691505b602082108103610a5d57610a5c610a03565b5b50919050565b7f4f6e6c792061646d696e20616c6c6f7765640000000000000000000000000000600082015250565b6000610a9960128361097b565b9150610aa482610a63565b602082019050919050565b60006020820190508181036000830152610ac881610a8c565b9050919050565b60008190508160005260206000209050919050565b60006020601f8301049050919050565b600082821b905092915050565b600060088302610b317fffffffffffffffffffffffffffffffffffffffffffffffffffffffffffffffff82610af4565b610b3b8683610af4565b95508019841693508086168417925050509392505050565b6000819050919050565b6000610b78610b73610b6e84610581565b610b53565b610581565b9050919050565b6000819050919050565b610b9283610b5d565b610ba6610b9e82610b7f565b848454610b01565b825550505050565b600090565b610bbb610bae565b610bc6818484610b89565b505050565b5b81811015610bea57610bdf600082610bb3565b600181019050610bcc565b5050565b601f821115610c2f57610c0081610acf565b610c0984610ae4565b81016020851015610c18578190505b610c2c610c2485610ae4565b830182610bcb565b50505b505050565b600082821c905092915050565b6000610c5260001984600802610c34565b1980831691505092915050565b6000610c6b8383610c41565b9150826002028217905092915050565b610c848261059a565b67ffffffffffffffff811115610c9d57610c9c610768565b5b610ca78254610a32565b610cb2828285610bee565b600060209050601f831160018114610ce55760008415610cd3578287015190505b610cdd8582610c5f565b865550610d45565b601f198416610cf386610acf565b60005b82811015610d1b57848901518255600182019150602085019450602081019050610cf6565b86831015610d385784890151610d34601f891682610c41565b8355505b6001600288020188555050505b505050505050565b6000604082019050610d62600083018561096c565b8181036020830152610d74818461098c565b9050939250505056fea264697066735822122043bad57546572baebced52979f25ec650e3e45288bc77c52fd732c9c92afe92e64736f6c63430008140033",
  "linkReferences": {},
  "deployedLinkReferences": {}
}